{
  "address": "0xDc64a140Aa3E981100a9becA4E685f962f0cF6C9",
  "abi": [
    {
      "inputs": [
        {
          "internalType": "address",
          "name": "zkNeuralNetworkVerifier",
          "type": "address"
        },
        {
          "internalType": "address",
          "name": "vrfCoordinatorV2",
          "type": "address"
        },
        {
          "internalType": "bytes32",
          "name": "gaslane",
          "type": "bytes32"
        },
        {
          "internalType": "uint64",
          "name": "subscriptionId",
          "type": "uint64"
        },
        {
          "internalType": "uint32",
          "name": "gasLimit",
          "type": "uint32"
        }
      ],
      "stateMutability": "nonpayable",
      "type": "constructor"
    },
    {
      "inputs": [
        {
          "internalType": "address",
          "name": "have",
          "type": "address"
        },
        {
          "internalType": "address",
          "name": "want",
          "type": "address"
        }
      ],
      "name": "OnlyCoordinatorCanFulfill",
      "type": "error"
    },
    {
      "inputs": [
        {
          "internalType": "uint256",
          "name": "requestId",
          "type": "uint256"
        },
        {
          "internalType": "uint256[]",
          "name": "randomWords",
          "type": "uint256[]"
        }
      ],
      "name": "rawFulfillRandomWords",
      "outputs": [],
      "stateMutability": "nonpayable",
      "type": "function"
    },
    {
      "inputs": [],
      "name": "requestWithdrawal",
      "outputs": [],
      "stateMutability": "nonpayable",
      "type": "function"
    },
    {
      "inputs": [
        {
          "components": [
            {
              "components": [
                {
                  "internalType": "uint256",
                  "name": "X",
                  "type": "uint256"
                },
                {
                  "internalType": "uint256",
                  "name": "Y",
                  "type": "uint256"
                }
              ],
              "internalType": "struct Pairing.G1Point",
              "name": "a",
              "type": "tuple"
            },
            {
              "components": [
                {
                  "internalType": "uint256[2]",
                  "name": "X",
                  "type": "uint256[2]"
                },
                {
                  "internalType": "uint256[2]",
                  "name": "Y",
                  "type": "uint256[2]"
                }
              ],
              "internalType": "struct Pairing.G2Point",
              "name": "b",
              "type": "tuple"
            },
            {
              "components": [
                {
                  "internalType": "uint256",
                  "name": "X",
                  "type": "uint256"
                },
                {
                  "internalType": "uint256",
                  "name": "Y",
                  "type": "uint256"
                }
              ],
              "internalType": "struct Pairing.G1Point",
              "name": "c",
              "type": "tuple"
            }
          ],
          "internalType": "struct Verifier.Proof",
          "name": "proof",
          "type": "tuple"
        },
        {
          "internalType": "uint256[1]",
          "name": "input",
          "type": "uint256[1]"
        }
      ],
      "name": "withdrawWithProofOfZkNeuralNetwork",
      "outputs": [],
      "stateMutability": "nonpayable",
      "type": "function"
    }
  ],
  "transactionHash": "0x52558d40d684b038afd94b04435048a16dd6923a93fb4592b027146590622894",
  "args": [
    "0xCf7Ed3AccA5a467e9e704C703E8D87F634fB0Fc9",
    "0x5FbDB2315678afecb367f032d93F642f64180aa3",
    "0x474e34a077df58807dbe9c96d3c009b23b3c6d0cce433e59bbf5b34f823bc56c",
    "1",
    10000000
  ],
  "numDeployments": 1,
  "solcInputHash": "8abb7d6478579ac37097bf6902c1cbe0",
  "bytecode": "0x6101406040523480156200001257600080fd5b50604051620014ee380380620014ee833981810160405281019062000038919062000273565b838073ffffffffffffffffffffffffffffffffffffffff1660808173ffffffffffffffffffffffffffffffffffffffff1681525050508473ffffffffffffffffffffffffffffffffffffffff1660c08173ffffffffffffffffffffffffffffffffffffffff16815250508373ffffffffffffffffffffffffffffffffffffffff1660a08173ffffffffffffffffffffffffffffffffffffffff16815250508260e081815250508167ffffffffffffffff166101008167ffffffffffffffff16815250508063ffffffff166101208163ffffffff168152505060008060006101000a81548160ff02191690836002811115620001385762000137620002fb565b5b021790555050505050506200032a565b600080fd5b600073ffffffffffffffffffffffffffffffffffffffff82169050919050565b60006200017a826200014d565b9050919050565b6200018c816200016d565b81146200019857600080fd5b50565b600081519050620001ac8162000181565b92915050565b6000819050919050565b620001c781620001b2565b8114620001d357600080fd5b50565b600081519050620001e781620001bc565b92915050565b600067ffffffffffffffff82169050919050565b6200020c81620001ed565b81146200021857600080fd5b50565b6000815190506200022c8162000201565b92915050565b600063ffffffff82169050919050565b6200024d8162000232565b81146200025957600080fd5b50565b6000815190506200026d8162000242565b92915050565b600080600080600060a0868803121562000292576200029162000148565b5b6000620002a2888289016200019b565b9550506020620002b5888289016200019b565b9450506040620002c888828901620001d6565b9350506060620002db888289016200021b565b9250506080620002ee888289016200025c565b9150509295509295909350565b7f4e487b7100000000000000000000000000000000000000000000000000000000600052602160045260246000fd5b60805160a05160c05160e051610100516101205161116f6200037f600039600061045c0152600061043901526000610418015260006101a8015260006103dc015260008181608a015260de015261116f6000f3fe608060405234801561001057600080fd5b50600436106100415760003560e01c80631fe543e3146100465780638588047214610062578063dbaf21451461007e575b600080fd5b610060600480360381019061005b919061070c565b610088565b005b61007c600480360381019061007791906109d4565b610148565b005b610086610366565b005b7f000000000000000000000000000000000000000000000000000000000000000073ffffffffffffffffffffffffffffffffffffffff163373ffffffffffffffffffffffffffffffffffffffff161461013a57337f00000000000000000000000000000000000000000000000000000000000000006040517f1cf993f4000000000000000000000000000000000000000000000000000000008152600401610131929190610a57565b60405180910390fd5b610144828261050d565b5050565b6001548160006001811061015f5761015e610a80565b5b6020020151146101a4576040517f08c379a000000000000000000000000000000000000000000000000000000000815260040161019b90610b0c565b60405180910390fd5b60007f000000000000000000000000000000000000000000000000000000000000000073ffffffffffffffffffffffffffffffffffffffff1663f48d772984846040518363ffffffff1660e01b8152600401610201929190610cfc565b602060405180830381865afa15801561021e573d6000803e3d6000fd5b505050506040513d601f19601f820116820180604052508101906102429190610d5f565b905080610284576040517f08c379a000000000000000000000000000000000000000000000000000000000815260040161027b90610dfe565b60405180910390fd5b600047905060003373ffffffffffffffffffffffffffffffffffffffff16826040516102af90610e4f565b60006040518083038185875af1925050503d80600081146102ec576040519150601f19603f3d011682016040523d82523d6000602084013e6102f1565b606091505b5050905080610335576040517f08c379a000000000000000000000000000000000000000000000000000000000815260040161032c90610eb0565b60405180910390fd5b60008060006101000a81548160ff0219169083600281111561035a57610359610ed0565b5b02179055505050505050565b6000600281111561037a57610379610ed0565b5b60008054906101000a900460ff16600281111561039a57610399610ed0565b5b146103da576040517f08c379a00000000000000000000000000000000000000000000000000000000081526004016103d190610f71565b60405180910390fd5b7f000000000000000000000000000000000000000000000000000000000000000073ffffffffffffffffffffffffffffffffffffffff16635d3b1d307f00000000000000000000000000000000000000000000000000000000000000007f000000000000000000000000000000000000000000000000000000000000000060037f000000000000000000000000000000000000000000000000000000000000000060016040518663ffffffff1660e01b815260040161049d959493929190611044565b6020604051808303816000875af11580156104bc573d6000803e3d6000fd5b505050506040513d601f19601f820116820180604052508101906104e091906110ac565b5060016000806101000a81548160ff0219169083600281111561050657610505610ed0565b5b0217905550565b600a8160008151811061052357610522610a80565b5b60200260200101516105359190611108565b60018190555060026000806101000a81548160ff021916908360028111156105605761055f610ed0565b5b02179055505050565b6000604051905090565b600080fd5b600080fd5b6000819050919050565b6105908161057d565b811461059b57600080fd5b50565b6000813590506105ad81610587565b92915050565b600080fd5b6000601f19601f8301169050919050565b7f4e487b7100000000000000000000000000000000000000000000000000000000600052604160045260246000fd5b610601826105b8565b810181811067ffffffffffffffff821117156106205761061f6105c9565b5b80604052505050565b6000610633610569565b905061063f82826105f8565b919050565b600067ffffffffffffffff82111561065f5761065e6105c9565b5b602082029050602081019050919050565b600080fd5b600061068861068384610644565b610629565b905080838252602082019050602084028301858111156106ab576106aa610670565b5b835b818110156106d457806106c0888261059e565b8452602084019350506020810190506106ad565b5050509392505050565b600082601f8301126106f3576106f26105b3565b5b8135610703848260208601610675565b91505092915050565b6000806040838503121561072357610722610573565b5b60006107318582860161059e565b925050602083013567ffffffffffffffff81111561075257610751610578565b5b61075e858286016106de565b9150509250929050565b600080fd5b60006040828403121561078357610782610768565b5b61078d6040610629565b9050600061079d8482850161059e565b60008301525060206107b18482850161059e565b60208301525092915050565b600067ffffffffffffffff8211156107d8576107d76105c9565b5b602082029050919050565b60006107f66107f1846107bd565b610629565b905080602084028301858111156108105761080f610670565b5b835b818110156108395780610825888261059e565b845260208401935050602081019050610812565b5050509392505050565b600082601f830112610858576108576105b3565b5b60026108658482856107e3565b91505092915050565b60006080828403121561088457610883610768565b5b61088e6040610629565b9050600061089e84828501610843565b60008301525060406108b284828501610843565b60208301525092915050565b600061010082840312156108d5576108d4610768565b5b6108df6060610629565b905060006108ef8482850161076d565b60008301525060406109038482850161086e565b60208301525060c06109178482850161076d565b60408301525092915050565b600067ffffffffffffffff82111561093e5761093d6105c9565b5b602082029050919050565b600061095c61095784610923565b610629565b9050806020840283018581111561097657610975610670565b5b835b8181101561099f578061098b888261059e565b845260208401935050602081019050610978565b5050509392505050565b600082601f8301126109be576109bd6105b3565b5b60016109cb848285610949565b91505092915050565b60008061012083850312156109ec576109eb610573565b5b60006109fa858286016108be565b925050610100610a0c858286016109a9565b9150509250929050565b600073ffffffffffffffffffffffffffffffffffffffff82169050919050565b6000610a4182610a16565b9050919050565b610a5181610a36565b82525050565b6000604082019050610a6c6000830185610a48565b610a796020830184610a48565b9392505050565b7f4e487b7100000000000000000000000000000000000000000000000000000000600052603260045260246000fd5b600082825260208201905092915050565b7f50726f766964696e672070726f6f6620666f722077726f6e67206e756d626572600082015250565b6000610af6602083610aaf565b9150610b0182610ac0565b602082019050919050565b60006020820190508181036000830152610b2581610ae9565b9050919050565b610b358161057d565b82525050565b604082016000820151610b516000850182610b2c565b506020820151610b646020850182610b2c565b50505050565b600060029050919050565b600081905092915050565b6000819050919050565b6000610b968383610b2c565b60208301905092915050565b6000602082019050919050565b610bb881610b6a565b610bc28184610b75565b9250610bcd82610b80565b8060005b83811015610bfe578151610be58782610b8a565b9650610bf083610ba2565b925050600181019050610bd1565b505050505050565b608082016000820151610c1c6000850182610baf565b506020820151610c2f6040850182610baf565b50505050565b61010082016000820151610c4c6000850182610b3b565b506020820151610c5f6040850182610c06565b506040820151610c7260c0850182610b3b565b50505050565b600060019050919050565b600081905092915050565b6000819050919050565b6000602082019050919050565b610cae81610c78565b610cb88184610c83565b9250610cc382610c8e565b8060005b83811015610cf4578151610cdb8782610b8a565b9650610ce683610c98565b925050600181019050610cc7565b505050505050565b600061012082019050610d126000830185610c35565b610d20610100830184610ca5565b9392505050565b60008115159050919050565b610d3c81610d27565b8114610d4757600080fd5b50565b600081519050610d5981610d33565b92915050565b600060208284031215610d7557610d74610573565b5b6000610d8384828501610d4a565b91505092915050565b7f546865206e657572616c206e6574776f726b20646964206e6f7420636c61737360008201527f696669792074686520696e70757420617320636f727265637421000000000000602082015250565b6000610de8603a83610aaf565b9150610df382610d8c565b604082019050919050565b60006020820190508181036000830152610e1781610ddb565b9050919050565b600081905092915050565b50565b6000610e39600083610e1e565b9150610e4482610e29565b600082019050919050565b6000610e5a82610e2c565b9150819050919050565b7f4661696c656420746f2073656e64204574686572000000000000000000000000600082015250565b6000610e9a601483610aaf565b9150610ea582610e64565b602082019050919050565b60006020820190508181036000830152610ec981610e8d565b9050919050565b7f4e487b7100000000000000000000000000000000000000000000000000000000600052602160045260246000fd5b7f6d75737420626520696e2049646c6520737461746520746f207374617274207760008201527f69746864726177616c0000000000000000000000000000000000000000000000602082015250565b6000610f5b602983610aaf565b9150610f6682610eff565b604082019050919050565b60006020820190508181036000830152610f8a81610f4e565b9050919050565b6000819050919050565b610fa481610f91565b82525050565b600067ffffffffffffffff82169050919050565b610fc781610faa565b82525050565b600061ffff82169050919050565b610fe481610fcd565b82525050565b600063ffffffff82169050919050565b61100381610fea565b82525050565b6000819050919050565b600061102e61102961102484610fcd565b611009565b610fea565b9050919050565b61103e81611013565b82525050565b600060a0820190506110596000830188610f9b565b6110666020830187610fbe565b6110736040830186610fdb565b6110806060830185610ffa565b61108d6080830184611035565b9695505050505050565b6000815190506110a681610587565b92915050565b6000602082840312156110c2576110c1610573565b5b60006110d084828501611097565b91505092915050565b7f4e487b7100000000000000000000000000000000000000000000000000000000600052601260045260246000fd5b60006111138261057d565b915061111e8361057d565b92508261112e5761112d6110d9565b5b82820690509291505056fea2646970667358221220866193355f29f61379e6538f09fcb0a98c633a36b25e1c1aaf4aea6a31e39a0464736f6c63430008120033",
  "devdoc": {
    "kind": "dev",
    "methods": {},
    "version": 1
  },
  "userdoc": {
    "kind": "user",
    "methods": {},
    "version": 1
  },
  "storageLayout": {
    "storage": [
      {
        "astId": 2120,
        "contract": "contracts/ZkNeuralNetwork.sol:ZkNeuralNetwork",
        "label": "s_withdrawalState",
        "offset": 0,
        "slot": "0",
        "type": "t_enum(WithdrawalState)2117"
      },
      {
        "astId": 2122,
        "contract": "contracts/ZkNeuralNetwork.sol:ZkNeuralNetwork",
        "label": "s_numberToVerify",
        "offset": 0,
        "slot": "1",
        "type": "t_uint256"
      }
    ],
    "types": {
      "t_enum(WithdrawalState)2117": {
        "encoding": "inplace",
        "label": "enum ZkNeuralNetwork.WithdrawalState",
        "numberOfBytes": "1"
      },
      "t_uint256": {
        "encoding": "inplace",
        "label": "uint256",
        "numberOfBytes": "32"
      }
    }
  }
}